{
  "contractName": "Lottery",
  "abi": [
    {
      "inputs": [],
      "stateMutability": "nonpayable",
      "type": "constructor"
    },
    {
      "anonymous": false,
      "inputs": [
        {
          "indexed": false,
          "internalType": "uint256",
          "name": "index",
          "type": "uint256"
        },
        {
          "indexed": false,
          "internalType": "address",
          "name": "bettor",
          "type": "address"
        },
        {
          "indexed": false,
          "internalType": "uint256",
          "name": "amount",
          "type": "uint256"
        },
        {
          "indexed": false,
          "internalType": "bytes1",
          "name": "challenger",
          "type": "bytes1"
        },
        {
          "indexed": false,
          "internalType": "uint256",
          "name": "answerBlockNumber",
          "type": "uint256"
        }
      ],
      "name": "BET",
      "type": "event"
    },
    {
      "anonymous": false,
      "inputs": [
        {
          "indexed": false,
          "internalType": "uint256",
          "name": "index",
          "type": "uint256"
        },
        {
          "indexed": false,
          "internalType": "address",
          "name": "bettor",
          "type": "address"
        },
        {
          "indexed": false,
          "internalType": "uint256",
          "name": "amount",
          "type": "uint256"
        },
        {
          "indexed": false,
          "internalType": "bytes1",
          "name": "challenger",
          "type": "bytes1"
        },
        {
          "indexed": false,
          "internalType": "bytes1",
          "name": "answer",
          "type": "bytes1"
        },
        {
          "indexed": false,
          "internalType": "uint256",
          "name": "answerBlockNumber",
          "type": "uint256"
        }
      ],
      "name": "DRAW",
      "type": "event"
    },
    {
      "anonymous": false,
      "inputs": [
        {
          "indexed": false,
          "internalType": "uint256",
          "name": "index",
          "type": "uint256"
        },
        {
          "indexed": false,
          "internalType": "address",
          "name": "bettor",
          "type": "address"
        },
        {
          "indexed": false,
          "internalType": "uint256",
          "name": "amount",
          "type": "uint256"
        },
        {
          "indexed": false,
          "internalType": "bytes1",
          "name": "challenger",
          "type": "bytes1"
        },
        {
          "indexed": false,
          "internalType": "bytes1",
          "name": "answer",
          "type": "bytes1"
        },
        {
          "indexed": false,
          "internalType": "uint256",
          "name": "answerBlockNumber",
          "type": "uint256"
        }
      ],
      "name": "FAIL",
      "type": "event"
    },
    {
      "anonymous": false,
      "inputs": [
        {
          "indexed": false,
          "internalType": "uint256",
          "name": "index",
          "type": "uint256"
        },
        {
          "indexed": false,
          "internalType": "address",
          "name": "bettor",
          "type": "address"
        },
        {
          "indexed": false,
          "internalType": "uint256",
          "name": "amount",
          "type": "uint256"
        },
        {
          "indexed": false,
          "internalType": "bytes1",
          "name": "challenger",
          "type": "bytes1"
        },
        {
          "indexed": false,
          "internalType": "uint256",
          "name": "answerBlockNumber",
          "type": "uint256"
        }
      ],
      "name": "REFUND",
      "type": "event"
    },
    {
      "anonymous": false,
      "inputs": [
        {
          "indexed": false,
          "internalType": "uint256",
          "name": "index",
          "type": "uint256"
        },
        {
          "indexed": false,
          "internalType": "address",
          "name": "bettor",
          "type": "address"
        },
        {
          "indexed": false,
          "internalType": "uint256",
          "name": "amount",
          "type": "uint256"
        },
        {
          "indexed": false,
          "internalType": "bytes1",
          "name": "challenger",
          "type": "bytes1"
        },
        {
          "indexed": false,
          "internalType": "bytes1",
          "name": "answer",
          "type": "bytes1"
        },
        {
          "indexed": false,
          "internalType": "uint256",
          "name": "answerBlockNumber",
          "type": "uint256"
        }
      ],
      "name": "WIN",
      "type": "event"
    },
    {
      "inputs": [],
      "name": "answerForTest",
      "outputs": [
        {
          "internalType": "bytes32",
          "name": "",
          "type": "bytes32"
        }
      ],
      "stateMutability": "view",
      "type": "function"
    },
    {
      "inputs": [],
      "name": "owner",
      "outputs": [
        {
          "internalType": "address payable",
          "name": "",
          "type": "address"
        }
      ],
      "stateMutability": "view",
      "type": "function"
    },
    {
      "inputs": [],
      "name": "getSomeValue",
      "outputs": [
        {
          "internalType": "uint256",
          "name": "value",
          "type": "uint256"
        }
      ],
      "stateMutability": "pure",
      "type": "function"
    },
    {
      "inputs": [],
      "name": "getPot",
      "outputs": [
        {
          "internalType": "uint256",
          "name": "pot",
          "type": "uint256"
        }
      ],
      "stateMutability": "view",
      "type": "function"
    },
    {
      "inputs": [
        {
          "internalType": "bytes1",
          "name": "challengers",
          "type": "bytes1"
        }
      ],
      "name": "betAndDistribute",
      "outputs": [
        {
          "internalType": "bool",
          "name": "result",
          "type": "bool"
        }
      ],
      "stateMutability": "payable",
      "type": "function"
    },
    {
      "inputs": [
        {
          "internalType": "bytes1",
          "name": "challengers",
          "type": "bytes1"
        }
      ],
      "name": "bet",
      "outputs": [
        {
          "internalType": "bool",
          "name": "result",
          "type": "bool"
        }
      ],
      "stateMutability": "payable",
      "type": "function"
    },
    {
      "inputs": [],
      "name": "distribute",
      "outputs": [],
      "stateMutability": "nonpayable",
      "type": "function"
    },
    {
      "inputs": [
        {
          "internalType": "bytes32",
          "name": "answer",
          "type": "bytes32"
        }
      ],
      "name": "setAnswerForTest",
      "outputs": [
        {
          "internalType": "bool",
          "name": "result",
          "type": "bool"
        }
      ],
      "stateMutability": "nonpayable",
      "type": "function"
    },
    {
      "inputs": [
        {
          "internalType": "bytes1",
          "name": "challengers",
          "type": "bytes1"
        },
        {
          "internalType": "bytes32",
          "name": "answer",
          "type": "bytes32"
        }
      ],
      "name": "isMatch",
      "outputs": [
        {
          "internalType": "enum Lottery.BettingResult",
          "name": "",
          "type": "uint8"
        }
      ],
      "stateMutability": "pure",
      "type": "function"
    },
    {
      "inputs": [
        {
          "internalType": "uint256",
          "name": "index",
          "type": "uint256"
        }
      ],
      "name": "getBetInfo",
      "outputs": [
        {
          "internalType": "uint256",
          "name": "answerBlockNumber",
          "type": "uint256"
        },
        {
          "internalType": "address",
          "name": "bettor",
          "type": "address"
        },
        {
          "internalType": "bytes1",
          "name": "challengers",
          "type": "bytes1"
        }
      ],
      "stateMutability": "view",
      "type": "function"
    }
  ],
  "bytecode": "0x60806040526000600360006101000a81548160ff02191690831515021790555034801561002b57600080fd5b5033600360016101000a81548173ffffffffffffffffffffffffffffffffffffffff021916908373ffffffffffffffffffffffffffffffffffffffff1602179055506118178061007c6000396000f3fe6080604052600436106100915760003560e01c806399a167d71161005957806399a167d714610193578063a40674b7146101d0578063e16ea857146101fb578063e4fc6b6d1461022b578063f4b46f5b1461024257610091565b8063403c9fa8146100965780637009fa36146100c157806379141f80146100fe57806384f7e4f01461013d5780638da5cb5b14610168575b600080fd5b3480156100a257600080fd5b506100ab610272565b6040516100b89190611004565b60405180910390f35b3480156100cd57600080fd5b506100e860048036038101906100e3919061105a565b61027c565b6040516100f591906110a2565b60405180910390f35b34801561010a57600080fd5b50610125600480360381019061012091906110e9565b61031e565b60405161013493929190611192565b60405180910390f35b34801561014957600080fd5b5061015261041c565b60405161015f91906111d8565b60405180910390f35b34801561017457600080fd5b5061017d610422565b60405161018a9190611214565b60405180910390f35b34801561019f57600080fd5b506101ba60048036038101906101b5919061125b565b610448565b6040516101c79190611312565b60405180910390f35b3480156101dc57600080fd5b506101e5610731565b6040516101f29190611004565b60405180910390f35b6102156004803603810190610210919061132d565b61073a565b60405161022291906110a2565b60405180910390f35b34801561023757600080fd5b50610240610757565b005b61025c6004803603810190610257919061132d565b610baa565b60405161026991906110a2565b60405180910390f35b6000600454905090565b6000600360019054906101000a900473ffffffffffffffffffffffffffffffffffffffff1673ffffffffffffffffffffffffffffffffffffffff163373ffffffffffffffffffffffffffffffffffffffff161461030e576040517f08c379a0000000000000000000000000000000000000000000000000000000008152600401610305906113b7565b60405180910390fd5b8160058190555060019050919050565b60008060008060026000868152602001908152602001600020604051806060016040529081600082015481526020016001820160009054906101000a900473ffffffffffffffffffffffffffffffffffffffff1673ffffffffffffffffffffffffffffffffffffffff1673ffffffffffffffffffffffffffffffffffffffff1681526020016001820160149054906101000a900460f81b7effffffffffffffffffffffffffffffffffffffffffffffffffffffffffffff19167effffffffffffffffffffffffffffffffffffffffffffffffffffffffffffff1916815250509050806000015193508060200151925080604001519150509193909250565b60055481565b600360019054906101000a900473ffffffffffffffffffffffffffffffffffffffff1681565b6000808390506000849050600084600060208110610469576104686113d7565b5b1a60f81b9050600085600060208110610485576104846113d7565b5b1a60f81b90506004847effffffffffffffffffffffffffffffffffffffffffffffffffffffffffffff1916901c93506004847effffffffffffffffffffffffffffffffffffffffffffffffffffffffffffff1916901b93506004827effffffffffffffffffffffffffffffffffffffffffffffffffffffffffffff1916901c91506004827effffffffffffffffffffffffffffffffffffffffffffffffffffffffffffff1916901b91506004837effffffffffffffffffffffffffffffffffffffffffffffffffffffffffffff1916901b92506004837effffffffffffffffffffffffffffffffffffffffffffffffffffffffffffff1916901c92506004817effffffffffffffffffffffffffffffffffffffffffffffffffffffffffffff1916901b90506004817effffffffffffffffffffffffffffffffffffffffffffffffffffffffffffff1916901c9050817effffffffffffffffffffffffffffffffffffffffffffffffffffffffffffff1916847effffffffffffffffffffffffffffffffffffffffffffffffffffffffffffff19161480156106695750807effffffffffffffffffffffffffffffffffffffffffffffffffffffffffffff1916837effffffffffffffffffffffffffffffffffffffffffffffffffffffffffffff1916145b1561067b57600194505050505061072b565b817effffffffffffffffffffffffffffffffffffffffffffffffffffffffffffff1916847effffffffffffffffffffffffffffffffffffffffffffffffffffffffffffff191614806107105750807effffffffffffffffffffffffffffffffffffffffffffffffffffffffffffff1916837effffffffffffffffffffffffffffffffffffffffffffffffffffffffffffff1916145b1561072257600294505050505061072b565b60009450505050505b92915050565b60006005905090565b600061074582610baa565b5061074e610757565b60019050919050565b600080610762610f92565b60008060015494505b600054851015610b9c5760026000868152602001908152602001600020604051806060016040529081600082015481526020016001820160009054906101000a900473ffffffffffffffffffffffffffffffffffffffff1673ffffffffffffffffffffffffffffffffffffffff1673ffffffffffffffffffffffffffffffffffffffff1681526020016001820160149054906101000a900460f81b7effffffffffffffffffffffffffffffffffffffffffffffffffffffffffffff19167effffffffffffffffffffffffffffffffffffffffffffffffffffffffffffff191681525050925061085d8360000151610c9f565b9150600060028111156108735761087261129b565b5b8260028111156108865761088561129b565b5b03610ac457600061089a8460000151610ce4565b90506108aa846040015182610448565b9150600160028111156108c0576108bf61129b565b5b8260028111156108d3576108d261129b565b5b03610969576108fa84602001516611c37937e080006004546108f59190611435565b610d0c565b945060006004819055507f8219079e2d6c1192fb0ff7f78e6faaf5528ad6687e69749205d87bd4b156912b86856020015187876040015185600060208110610945576109446113d7565b5b1a60f81b8960000151604051610960969594939291906114ea565b60405180910390a15b6000600281111561097d5761097c61129b565b5b8260028111156109905761098f61129b565b5b03610a1b576611c37937e08000600460008282546109ae9190611435565b925050819055507f3b19d607433249d2ebc766ae82ca3848e9c064f1febb5147bc6e5b21d0adebc586856020015160008760400151856000602081106109f7576109f66113d7565b5b1a60f81b8960000151604051610a1296959493929190611586565b60405180910390a15b600280811115610a2e57610a2d61129b565b5b826002811115610a4157610a4061129b565b5b03610ac257610a5b84602001516611c37937e08000610d0c565b94507f72ec2e949e4fad9380f9d5db3e2ed0e71cf22c51d8d66424508bdc761a3f4b0e86856020015187876040015185600060208110610a9e57610a9d6113d7565b5b1a60f81b8960000151604051610ab9969594939291906114ea565b60405180910390a15b505b60016002811115610ad857610ad761129b565b5b826002811115610aeb57610aea61129b565b5b0315610b9c57600280811115610b0457610b0361129b565b5b826002811115610b1757610b1661129b565b5b03610b7f57610b3183602001516611c37937e08000610d0c565b93507f59c0185881271a0f53d43e6ab9310091408f9e0ff9ae2512613de800f26b8de48584602001518686604001518760000151604051610b769594939291906115e7565b60405180910390a15b610b8885610ddb565b508480610b949061163a565b95505061076b565b846001819055505050505050565b60006611c37937e080003414610bf5576040517f08c379a0000000000000000000000000000000000000000000000000000000008152600401610bec906116ce565b60405180910390fd5b610bfe82610e3f565b610c3d576040517f08c379a0000000000000000000000000000000000000000000000000000000008152600401610c349061173a565b60405180910390fd5b7f100791de9f40bf2d56ffa6dc5597d2fd0b2703ea70bc7548cd74c04f5d215ab76001600054610c6d919061175a565b333485600343610c7d9190611435565b604051610c8e95949392919061178e565b60405180910390a160019050919050565b60008143118015610cbc575081610100610cb99190611435565b43105b15610cca5760009050610cdf565b814311610cda5760019050610cdf565b600290505b919050565b6000600360009054906101000a900460ff16610d0257600554610d05565b81405b9050919050565b6000806000905060008184610d21919061175a565b90508473ffffffffffffffffffffffffffffffffffffffff166108fc829081150290604051600060405180830381858888f19350505050158015610d69573d6000803e3d6000fd5b50600360019054906101000a900473ffffffffffffffffffffffffffffffffffffffff1673ffffffffffffffffffffffffffffffffffffffff166108fc839081150290604051600060405180830381858888f19350505050158015610dd2573d6000803e3d6000fd5b50505092915050565b6000600260008381526020019081526020016000206000808201600090556001820160006101000a81549073ffffffffffffffffffffffffffffffffffffffff02191690556001820160146101000a81549060ff0219169055505060019050919050565b6000610e49610f92565b33816020019073ffffffffffffffffffffffffffffffffffffffff16908173ffffffffffffffffffffffffffffffffffffffff1681525050600343610e8e9190611435565b8160000181815250508281604001907effffffffffffffffffffffffffffffffffffffffffffffffffffffffffffff191690817effffffffffffffffffffffffffffffffffffffffffffffffffffffffffffff1916815250508060026000805481526020019081526020016000206000820151816000015560208201518160010160006101000a81548173ffffffffffffffffffffffffffffffffffffffff021916908373ffffffffffffffffffffffffffffffffffffffff16021790555060408201518160010160146101000a81548160ff021916908360f81c0217905550905050600080815480929190610f839061163a565b91905055506001915050919050565b604051806060016040528060008152602001600073ffffffffffffffffffffffffffffffffffffffff16815260200160007effffffffffffffffffffffffffffffffffffffffffffffffffffffffffffff191681525090565b6000819050919050565b610ffe81610feb565b82525050565b60006020820190506110196000830184610ff5565b92915050565b600080fd5b6000819050919050565b61103781611024565b811461104257600080fd5b50565b6000813590506110548161102e565b92915050565b6000602082840312156110705761106f61101f565b5b600061107e84828501611045565b91505092915050565b60008115159050919050565b61109c81611087565b82525050565b60006020820190506110b76000830184611093565b92915050565b6110c681610feb565b81146110d157600080fd5b50565b6000813590506110e3816110bd565b92915050565b6000602082840312156110ff576110fe61101f565b5b600061110d848285016110d4565b91505092915050565b600073ffffffffffffffffffffffffffffffffffffffff82169050919050565b600061114182611116565b9050919050565b61115181611136565b82525050565b60007fff0000000000000000000000000000000000000000000000000000000000000082169050919050565b61118c81611157565b82525050565b60006060820190506111a76000830186610ff5565b6111b46020830185611148565b6111c16040830184611183565b949350505050565b6111d281611024565b82525050565b60006020820190506111ed60008301846111c9565b92915050565b60006111fe82611116565b9050919050565b61120e816111f3565b82525050565b60006020820190506112296000830184611205565b92915050565b61123881611157565b811461124357600080fd5b50565b6000813590506112558161122f565b92915050565b600080604083850312156112725761127161101f565b5b600061128085828601611246565b925050602061129185828601611045565b9150509250929050565b7f4e487b7100000000000000000000000000000000000000000000000000000000600052602160045260246000fd5b600381106112db576112da61129b565b5b50565b60008190506112ec826112ca565b919050565b60006112fc826112de565b9050919050565b61130c816112f1565b82525050565b60006020820190506113276000830184611303565b92915050565b6000602082840312156113435761134261101f565b5b600061135184828501611246565b91505092915050565b600082825260208201905092915050565b7f4f6e6c79206f776e65722063616e207365740000000000000000000000000000600082015250565b60006113a160128361135a565b91506113ac8261136b565b602082019050919050565b600060208201905081810360008301526113d081611394565b9050919050565b7f4e487b7100000000000000000000000000000000000000000000000000000000600052603260045260246000fd5b7f4e487b7100000000000000000000000000000000000000000000000000000000600052601160045260246000fd5b600061144082610feb565b915061144b83610feb565b9250827fffffffffffffffffffffffffffffffffffffffffffffffffffffffffffffffff038211156114805761147f611406565b5b828201905092915050565b6000819050919050565b60006114b06114ab6114a684611116565b61148b565b611116565b9050919050565b60006114c282611495565b9050919050565b60006114d4826114b7565b9050919050565b6114e4816114c9565b82525050565b600060c0820190506114ff6000830189610ff5565b61150c60208301886114db565b6115196040830187610ff5565b6115266060830186611183565b6115336080830185611183565b61154060a0830184610ff5565b979650505050505050565b6000819050919050565b600061157061156b6115668461154b565b61148b565b610feb565b9050919050565b61158081611555565b82525050565b600060c08201905061159b6000830189610ff5565b6115a860208301886114db565b6115b56040830187611577565b6115c26060830186611183565b6115cf6080830185611183565b6115dc60a0830184610ff5565b979650505050505050565b600060a0820190506115fc6000830188610ff5565b61160960208301876114db565b6116166040830186610ff5565b6116236060830185611183565b6116306080830184610ff5565b9695505050505050565b600061164582610feb565b91507fffffffffffffffffffffffffffffffffffffffffffffffffffffffffffffffff820361167757611676611406565b5b600182019050919050565b7f6e6f7420656e6f75676820457468210000000000000000000000000000000000600082015250565b60006116b8600f8361135a565b91506116c382611682565b602082019050919050565b600060208201905081810360008301526116e7816116ab565b9050919050565b7f4661696c20746f204164642061206e65772042657420496e666f000000000000600082015250565b6000611724601a8361135a565b915061172f826116ee565b602082019050919050565b6000602082019050818103600083015261175381611717565b9050919050565b600061176582610feb565b915061177083610feb565b92508282101561178357611782611406565b5b828203905092915050565b600060a0820190506117a36000830188610ff5565b6117b06020830187611148565b6117bd6040830186610ff5565b6117ca6060830185611183565b6117d76080830184610ff5565b969550505050505056fea26469706673582212203a55de703950f920b38f3423bc5a1f816e8be34e72bea3ab1e7a73ce7704238a64736f6c634300080d0033",
  "immutableReferences": {},
  "source": "// SPDX-License-Identifier: MIT\npragma solidity >=0.4.22 <0.9.0;\n\ncontract Lottery {\n    struct BetInfo {\n        uint256 answerBlockNumber;\n        address payable bettor;\n        bytes1 challengers;\n    }\n    uint256 private _tail;\n    uint256 private _head;\n    mapping (uint256 => BetInfo) private _bets;\n    \n    bool private mode = false;\n\n    address payable public owner;\n    uint256 constant internal BLOCK_LIMIT = 256;\n    uint256 constant internal BET_BLOCK_INTERVAL = 3;\n    uint256 constant internal BET_AMOUNT = 5 * 10 ** 15;\n\n    uint256 private _pot;\n    \n    bytes32 public answerForTest ;\n\n    enum BlockStatus {checkable, notRevealed, BlockLimitPassed}\n    enum BettingResult {Fail, Win, Draw}\n\n    event BET(uint256 index, address bettor, uint256 amount, bytes1 challenger, uint256 answerBlockNumber);\n    event WIN(uint256 index, address bettor, uint256 amount, bytes1 challenger, bytes1 answer, uint256 answerBlockNumber);\n    event FAIL(uint256 index, address bettor, uint256 amount, bytes1 challenger, bytes1 answer, uint256 answerBlockNumber);\n    event DRAW(uint256 index, address bettor, uint256 amount, bytes1 challenger, bytes1 answer, uint256 answerBlockNumber);\n    event REFUND(uint256 index, address bettor, uint256 amount, bytes1 challenger, uint256 answerBlockNumber);\n\n    constructor() {\n        //   owner .\n        owner = payable(msg.sender);\n    } \n\n    function getSomeValue() public pure returns (uint256 value) {\n        return 5;\n    }\n\n    function getPot() public view returns (uint256 pot) {\n        return _pot;\n    }\n\n    function betAndDistribute(bytes1 challengers) public payable returns (bool result) {\n        bet(challengers);\n        distribute();\n\n        return true;\n    }\n\n\n    /**\n     * @dev\n     * @param challengers\n     * @return result     bool  \n     */\n\n    function bet(bytes1 challengers) public payable returns (bool result) {\n        require(msg.value == BET_AMOUNT, \"not enough Eth!\");\n        require(pushBet(challengers), 'Fail to Add a new Bet Info');\n        emit BET(_tail - 1, msg.sender, msg.value, challengers, block.number + BET_BLOCK_INTERVAL);\n        return true;\n    }\n\n    function distribute() public {\n        uint256 cur;\n        uint256 transferAmount;\n\n        BetInfo memory b;\n        BlockStatus currentBlockStatus;\n        BettingResult currentBettingResult;\n\n        for(cur= _head; cur < _tail; cur++) {\n           b = _bets[cur];\n           currentBlockStatus = getBlockStatus(b.answerBlockNumber);\n\n           if(currentBlockStatus == BlockStatus.checkable){\n               bytes32 answerBlockHash = getAnswerBlockHash(b.answerBlockNumber);\n               currentBettingResult = isMatch(b.challengers, answerBlockHash);\n\n               if(currentBettingResult == BettingResult.Win){\n                   transferAmount = transferAfterPayingFee(b.bettor, _pot + BET_AMOUNT);\n                   _pot = 0;\n\n                   emit WIN(cur, b.bettor, transferAmount, b.challengers, answerBlockHash[0], b.answerBlockNumber);\n               }\n               if(currentBettingResult == BettingResult.Fail) {\n                   _pot += BET_AMOUNT;\n                   \n                   emit FAIL(cur, b.bettor, 0, b.challengers, answerBlockHash[0], b.answerBlockNumber);\n               }\n               if(currentBettingResult == BettingResult.Draw) {\n                   transferAmount = transferAfterPayingFee(b.bettor, BET_AMOUNT);\n                   emit DRAW(cur, b.bettor, transferAmount, b.challengers, answerBlockHash[0], b.answerBlockNumber);\n               }\n           }\n           if(currentBlockStatus == BlockStatus.notRevealed){\n\n               break;\n           }\n           if(currentBlockStatus == BlockStatus.BlockLimitPassed){\n                transferAmount = transferAfterPayingFee(b.bettor, BET_AMOUNT);\n                emit REFUND(cur, b.bettor, transferAmount, b.challengers, b.answerBlockNumber);\n               \n           }\n           popBet(cur);\n        }\n        _head = cur;\n    }\n\n    function transferAfterPayingFee(address payable addr, uint256 amount) internal returns (uint256) {\n        // uint256 fee = amount / 100;\n        uint256 fee = 0;\n        uint256 amountWithOutFee = amount - fee;\n\n        addr.transfer(amountWithOutFee);\n        owner.transfer(fee);\n        // call, send, transfer transfer() ->  \n        // send ->   false  \n        // call ->           call ...\n\n    }\n\n    function setAnswerForTest(bytes32 answer) public returns (bool result){\n        require(msg.sender == owner, \"Only owner can set\");\n        answerForTest = answer;\n        return true;\n    }\n\n    function getAnswerBlockHash(uint256 answerBlockNumber) internal view returns (bytes32 answer){\n        return mode ? blockhash(answerBlockNumber): answerForTest;\n    }\n\n    /**\n        @dev    \n        @param challengers \n        @param answer \n        @return \n     */\n    function isMatch(bytes1 challengers, bytes32 answer) public pure returns (BettingResult) {\n        bytes1 first1 = challengers;\n        bytes1 first2 = challengers;\n\n        bytes1 answer1 = answer[0];\n        bytes1 answer2 = answer[0];\n        \n        first1 = first1 >> 4;\n        first1 = first1 << 4;\n\n        answer1 = answer1 >> 4;\n        answer1 = answer1 << 4;\n\n        first2 = first2 << 4;\n        first2 = first2 >> 4;\n\n        answer2 = answer2 << 4;\n        answer2 = answer2 >> 4;\n\n        if(first1 == answer1 && first2 == answer2){\n            return BettingResult.Win;\n        }\n        if(first1 == answer1 || first2 == answer2) {\n            return BettingResult.Draw;\n        }\n        return BettingResult.Fail;\n    }\n\n    function getBlockStatus(uint256 answerBlockNumber) internal view returns (BlockStatus) {\n        if(block.number > answerBlockNumber && block.number < BLOCK_LIMIT + answerBlockNumber){\n            return BlockStatus.checkable;\n        }\n        if( block.number <= answerBlockNumber ){\n            return BlockStatus.notRevealed;\n        }\n        return BlockStatus.BlockLimitPassed;\n    }\n\n\n    function getBetInfo(uint256 index) public view returns (uint256 answerBlockNumber, address bettor, bytes1 challengers){\n        BetInfo memory b = _bets[index];\n        answerBlockNumber = b.answerBlockNumber;\n        bettor = b.bettor;\n        challengers = b.challengers;\n    }\n\n    function pushBet(bytes1 challengers) internal returns (bool) {\n        BetInfo memory b;\n        b.bettor = payable(msg.sender);\n        b.answerBlockNumber = block.number + BET_BLOCK_INTERVAL;\n        b.challengers = challengers;\n\n        _bets[_tail] = b;\n        _tail++;\n        return true;\n    }\n\n    function popBet(uint256 index) internal returns (bool){\n        delete _bets[index];\n        return true;\n    }\n\n\n}\n",
  "sourcePath": "/Users/junsoo/Projects/first-dapp-contract/contracts/Lottery.sol",
  "compiler": {
    "name": "solc",
    "version": "0.8.13+commit.abaa5c0e.Emscripten.clang"
  },
  "schemaVersion": "3.4.7",
  "updatedAt": "2022-04-29T06:21:12.976Z",
  "devdoc": {
    "kind": "dev",
    "methods": {
      "bet(bytes1)": {
        "details": "@param challengers",
        "returns": {
          "result": "    bool  "
        }
      },
      "isMatch(bytes1,bytes32)": {
        "details": "   ",
        "params": {
          "answer": "",
          "challengers": ""
        },
        "returns": {
          "_0": ""
        }
      }
    },
    "version": 1
  },
  "userdoc": {
    "kind": "user",
    "methods": {},
    "version": 1
  }
}