{
  "contractName": "Lottery",
  "abi": [
    {
      "inputs": [],
      "stateMutability": "nonpayable",
      "type": "constructor"
    },
    {
      "inputs": [],
      "name": "owner",
      "outputs": [
        {
          "internalType": "address",
          "name": "",
          "type": "address"
        }
      ],
      "stateMutability": "view",
      "type": "function",
      "constant": true
    },
    {
      "inputs": [],
      "name": "getSomeValue",
      "outputs": [
        {
          "internalType": "uint256",
          "name": "value",
          "type": "uint256"
        }
      ],
      "stateMutability": "pure",
      "type": "function",
      "constant": true
    }
  ],
  "bytecode": "0x608060405234801561001057600080fd5b50336000806101000a81548173ffffffffffffffffffffffffffffffffffffffff021916908373ffffffffffffffffffffffffffffffffffffffff16021790555061016a806100606000396000f3fe608060405234801561001057600080fd5b50600436106100365760003560e01c80638da5cb5b1461003b578063a40674b714610059575b600080fd5b610043610077565b60405161005091906100e5565b60405180910390f35b61006161009b565b60405161006e9190610119565b60405180910390f35b60008054906101000a900473ffffffffffffffffffffffffffffffffffffffff1681565b60006005905090565b600073ffffffffffffffffffffffffffffffffffffffff82169050919050565b60006100cf826100a4565b9050919050565b6100df816100c4565b82525050565b60006020820190506100fa60008301846100d6565b92915050565b6000819050919050565b61011381610100565b82525050565b600060208201905061012e600083018461010a565b9291505056fea2646970667358221220601d62b7ef25b7893ec7ab588e627b8d7c66afa877a64e4fc1b8b0267406d2b064736f6c634300080d0033",
  "immutableReferences": {},
  "source": "// SPDX-License-Identifier: MIT\npragma solidity >=0.4.22 <0.9.0;\n\ncontract Lottery {\n    address public owner;\n    constructor() {\n        //배포가 될때 보낸사람을 owner로 저장한다.\n        owner = msg.sender;\n    } \n\n    function getSomeValue() public pure returns (uint256 value) {\n        return 5;\n    }\n}\n",
  "sourcePath": "/Users/junsoo/Projects/first-dapp-contract/contracts/Lottery.sol",
  "compiler": {
    "name": "solc",
    "version": "0.8.13+commit.abaa5c0e.Emscripten.clang"
  },
  "schemaVersion": "3.4.7",
  "updatedAt": "2022-04-28T06:18:17.059Z",
  "networkType": "ethereum",
  "devdoc": {
    "kind": "dev",
    "methods": {},
    "version": 1
  },
  "userdoc": {
    "kind": "user",
    "methods": {},
    "version": 1
  }
}