{
  "contractName": "Lottery",
  "abi": [
    {
      "inputs": [],
      "stateMutability": "nonpayable",
      "type": "constructor"
    },
    {
      "anonymous": false,
      "inputs": [
        {
          "indexed": false,
          "internalType": "uint256",
          "name": "index",
          "type": "uint256"
        },
        {
          "indexed": false,
          "internalType": "address",
          "name": "bettor",
          "type": "address"
        },
        {
          "indexed": false,
          "internalType": "uint256",
          "name": "amount",
          "type": "uint256"
        },
        {
          "indexed": false,
          "internalType": "bytes1",
          "name": "challenger",
          "type": "bytes1"
        },
        {
          "indexed": false,
          "internalType": "uint256",
          "name": "answerBlockNumber",
          "type": "uint256"
        }
      ],
      "name": "BET",
      "type": "event"
    },
    {
      "inputs": [],
      "name": "owner",
      "outputs": [
        {
          "internalType": "address",
          "name": "",
          "type": "address"
        }
      ],
      "stateMutability": "view",
      "type": "function"
    },
    {
      "inputs": [],
      "name": "getSomeValue",
      "outputs": [
        {
          "internalType": "uint256",
          "name": "value",
          "type": "uint256"
        }
      ],
      "stateMutability": "pure",
      "type": "function"
    },
    {
      "inputs": [],
      "name": "getPot",
      "outputs": [
        {
          "internalType": "uint256",
          "name": "pot",
          "type": "uint256"
        }
      ],
      "stateMutability": "view",
      "type": "function"
    },
    {
      "inputs": [
        {
          "internalType": "bytes1",
          "name": "challengers",
          "type": "bytes1"
        }
      ],
      "name": "bet",
      "outputs": [
        {
          "internalType": "bool",
          "name": "result",
          "type": "bool"
        }
      ],
      "stateMutability": "payable",
      "type": "function"
    },
    {
      "inputs": [],
      "name": "distribute",
      "outputs": [],
      "stateMutability": "nonpayable",
      "type": "function"
    },
    {
      "inputs": [
        {
          "internalType": "bytes1",
          "name": "challengers",
          "type": "bytes1"
        },
        {
          "internalType": "bytes32",
          "name": "answer",
          "type": "bytes32"
        }
      ],
      "name": "isMatch",
      "outputs": [
        {
          "internalType": "enum Lottery.BettingResult",
          "name": "",
          "type": "uint8"
        }
      ],
      "stateMutability": "pure",
      "type": "function"
    },
    {
      "inputs": [
        {
          "internalType": "uint256",
          "name": "index",
          "type": "uint256"
        }
      ],
      "name": "getBetInfo",
      "outputs": [
        {
          "internalType": "uint256",
          "name": "answerBlockNumber",
          "type": "uint256"
        },
        {
          "internalType": "address",
          "name": "bettor",
          "type": "address"
        },
        {
          "internalType": "bytes1",
          "name": "challengers",
          "type": "bytes1"
        }
      ],
      "stateMutability": "view",
      "type": "function"
    }
  ],
  "bytecode": "0x608060405234801561001057600080fd5b5033600360006101000a81548173ffffffffffffffffffffffffffffffffffffffff021916908373ffffffffffffffffffffffffffffffffffffffff160217905550611062806100616000396000f3fe6080604052600436106100705760003560e01c806399a167d71161004e57806399a167d71461010a578063a40674b714610147578063e4fc6b6d14610172578063f4b46f5b1461018957610070565b8063403c9fa81461007557806379141f80146100a05780638da5cb5b146100df575b600080fd5b34801561008157600080fd5b5061008a6101b9565b6040516100979190610ae2565b60405180910390f35b3480156100ac57600080fd5b506100c760048036038101906100c29190610b2e565b6101c3565b6040516100d693929190610bd7565b60405180910390f35b3480156100eb57600080fd5b506100f46102c1565b6040516101019190610c0e565b60405180910390f35b34801561011657600080fd5b50610131600480360381019061012c9190610c8b565b6102e7565b60405161013e9190610d42565b60405180910390f35b34801561015357600080fd5b5061015c6105d0565b6040516101699190610ae2565b60405180910390f35b34801561017e57600080fd5b506101876105d9565b005b6101a3600480360381019061019e9190610d5d565b61077f565b6040516101b09190610da5565b60405180910390f35b6000600454905090565b60008060008060026000868152602001908152602001600020604051806060016040529081600082015481526020016001820160009054906101000a900473ffffffffffffffffffffffffffffffffffffffff1673ffffffffffffffffffffffffffffffffffffffff1673ffffffffffffffffffffffffffffffffffffffff1681526020016001820160149054906101000a900460f81b7effffffffffffffffffffffffffffffffffffffffffffffffffffffffffffff19167effffffffffffffffffffffffffffffffffffffffffffffffffffffffffffff1916815250509050806000015193508060200151925080604001519150509193909250565b600360009054906101000a900473ffffffffffffffffffffffffffffffffffffffff1681565b600080839050600084905060008460006020811061030857610307610dc0565b5b1a60f81b905060008560006020811061032457610323610dc0565b5b1a60f81b90506004847effffffffffffffffffffffffffffffffffffffffffffffffffffffffffffff1916901c93506004847effffffffffffffffffffffffffffffffffffffffffffffffffffffffffffff1916901b93506004827effffffffffffffffffffffffffffffffffffffffffffffffffffffffffffff1916901c91506004827effffffffffffffffffffffffffffffffffffffffffffffffffffffffffffff1916901b91506004837effffffffffffffffffffffffffffffffffffffffffffffffffffffffffffff1916901b92506004837effffffffffffffffffffffffffffffffffffffffffffffffffffffffffffff1916901c92506004817effffffffffffffffffffffffffffffffffffffffffffffffffffffffffffff1916901b90506004817effffffffffffffffffffffffffffffffffffffffffffffffffffffffffffff1916901c9050817effffffffffffffffffffffffffffffffffffffffffffffffffffffffffffff1916847effffffffffffffffffffffffffffffffffffffffffffffffffffffffffffff19161480156105085750807effffffffffffffffffffffffffffffffffffffffffffffffffffffffffffff1916837effffffffffffffffffffffffffffffffffffffffffffffffffffffffffffff1916145b1561051a5760019450505050506105ca565b817effffffffffffffffffffffffffffffffffffffffffffffffffffffffffffff1916847effffffffffffffffffffffffffffffffffffffffffffffffffffffffffffff191614806105af5750807effffffffffffffffffffffffffffffffffffffffffffffffffffffffffffff1916837effffffffffffffffffffffffffffffffffffffffffffffffffffffffffffff1916145b156105c15760029450505050506105ca565b60009450505050505b92915050565b60006005905090565b60006105e3610a70565b600060015492505b60005483101561077a5760026000848152602001908152602001600020604051806060016040529081600082015481526020016001820160009054906101000a900473ffffffffffffffffffffffffffffffffffffffff1673ffffffffffffffffffffffffffffffffffffffff1673ffffffffffffffffffffffffffffffffffffffff1681526020016001820160149054906101000a900460f81b7effffffffffffffffffffffffffffffffffffffffffffffffffffffffffffff19167effffffffffffffffffffffffffffffffffffffffffffffffffffffffffffff19168152505091506106dd8260000151610874565b9050600060028111156106f3576106f2610ccb565b5b81600281111561070657610705610ccb565b5b50506001600281111561071c5761071b610ccb565b5b81600281111561072f5761072e610ccb565b5b031561077a5760028081111561074857610747610ccb565b5b81600281111561075b5761075a610ccb565b5b5050610766836108b9565b50828061077290610e1e565b9350506105eb565b505050565b60006611c37937e0800034146107ca576040517f08c379a00000000000000000000000000000000000000000000000000000000081526004016107c190610ec3565b60405180910390fd5b6107d38261091d565b610812576040517f08c379a000000000000000000000000000000000000000000000000000000000815260040161080990610f2f565b60405180910390fd5b7f100791de9f40bf2d56ffa6dc5597d2fd0b2703ea70bc7548cd74c04f5d215ab760016000546108429190610f4f565b3334856003436108529190610f83565b604051610863959493929190610fd9565b60405180910390a160019050919050565b6000814311801561089157508161010061088e9190610f83565b43105b1561089f57600090506108b4565b8143116108af57600190506108b4565b600290505b919050565b6000600260008381526020019081526020016000206000808201600090556001820160006101000a81549073ffffffffffffffffffffffffffffffffffffffff02191690556001820160146101000a81549060ff0219169055505060019050919050565b6000610927610a70565b33816020019073ffffffffffffffffffffffffffffffffffffffff16908173ffffffffffffffffffffffffffffffffffffffff168152505060034361096c9190610f83565b8160000181815250508281604001907effffffffffffffffffffffffffffffffffffffffffffffffffffffffffffff191690817effffffffffffffffffffffffffffffffffffffffffffffffffffffffffffff1916815250508060026000805481526020019081526020016000206000820151816000015560208201518160010160006101000a81548173ffffffffffffffffffffffffffffffffffffffff021916908373ffffffffffffffffffffffffffffffffffffffff16021790555060408201518160010160146101000a81548160ff021916908360f81c0217905550905050600080815480929190610a6190610e1e565b91905055506001915050919050565b604051806060016040528060008152602001600073ffffffffffffffffffffffffffffffffffffffff16815260200160007effffffffffffffffffffffffffffffffffffffffffffffffffffffffffffff191681525090565b6000819050919050565b610adc81610ac9565b82525050565b6000602082019050610af76000830184610ad3565b92915050565b600080fd5b610b0b81610ac9565b8114610b1657600080fd5b50565b600081359050610b2881610b02565b92915050565b600060208284031215610b4457610b43610afd565b5b6000610b5284828501610b19565b91505092915050565b600073ffffffffffffffffffffffffffffffffffffffff82169050919050565b6000610b8682610b5b565b9050919050565b610b9681610b7b565b82525050565b60007fff0000000000000000000000000000000000000000000000000000000000000082169050919050565b610bd181610b9c565b82525050565b6000606082019050610bec6000830186610ad3565b610bf96020830185610b8d565b610c066040830184610bc8565b949350505050565b6000602082019050610c236000830184610b8d565b92915050565b610c3281610b9c565b8114610c3d57600080fd5b50565b600081359050610c4f81610c29565b92915050565b6000819050919050565b610c6881610c55565b8114610c7357600080fd5b50565b600081359050610c8581610c5f565b92915050565b60008060408385031215610ca257610ca1610afd565b5b6000610cb085828601610c40565b9250506020610cc185828601610c76565b9150509250929050565b7f4e487b7100000000000000000000000000000000000000000000000000000000600052602160045260246000fd5b60038110610d0b57610d0a610ccb565b5b50565b6000819050610d1c82610cfa565b919050565b6000610d2c82610d0e565b9050919050565b610d3c81610d21565b82525050565b6000602082019050610d576000830184610d33565b92915050565b600060208284031215610d7357610d72610afd565b5b6000610d8184828501610c40565b91505092915050565b60008115159050919050565b610d9f81610d8a565b82525050565b6000602082019050610dba6000830184610d96565b92915050565b7f4e487b7100000000000000000000000000000000000000000000000000000000600052603260045260246000fd5b7f4e487b7100000000000000000000000000000000000000000000000000000000600052601160045260246000fd5b6000610e2982610ac9565b91507fffffffffffffffffffffffffffffffffffffffffffffffffffffffffffffffff8203610e5b57610e5a610def565b5b600182019050919050565b600082825260208201905092915050565b7f6e6f7420656e6f75676820726576657274204574682100000000000000000000600082015250565b6000610ead601683610e66565b9150610eb882610e77565b602082019050919050565b60006020820190508181036000830152610edc81610ea0565b9050919050565b7f4661696c20746f204164642061206e65772042657420496e666f000000000000600082015250565b6000610f19601a83610e66565b9150610f2482610ee3565b602082019050919050565b60006020820190508181036000830152610f4881610f0c565b9050919050565b6000610f5a82610ac9565b9150610f6583610ac9565b925082821015610f7857610f77610def565b5b828203905092915050565b6000610f8e82610ac9565b9150610f9983610ac9565b9250827fffffffffffffffffffffffffffffffffffffffffffffffffffffffffffffffff03821115610fce57610fcd610def565b5b828201905092915050565b600060a082019050610fee6000830188610ad3565b610ffb6020830187610b8d565b6110086040830186610ad3565b6110156060830185610bc8565b6110226080830184610ad3565b969550505050505056fea264697066735822122069a3153c486d48c51a6d06e4b27ab067953e8ceb3b66c1f6a2dd87d6f72cedbe64736f6c634300080d0033",
  "immutableReferences": {},
  "source": "// SPDX-License-Identifier: MIT\npragma solidity >=0.4.22 <0.9.0;\n\ncontract Lottery {\n    struct BetInfo {\n        uint256 answerBlockNumber;\n        address payable bettor;\n        bytes1 challengers;\n    }\n    uint256 private _tail;\n    uint256 private _head;\n    mapping (uint256 => BetInfo) private _bets;\n\n    address public owner;\n    uint256 constant internal BLOCK_LIMIT = 256;\n    uint256 constant internal BET_BLOCK_INTERVAL = 3;\n    uint256 constant internal BET_AMOUNT = 5 * 10 ** 15;\n\n    uint256 private _pot;\n\n    enum BlockStatus {checkable, notRevealed, BlockLimitPassed}\n    enum BettingResult {Fail, Win, Draw}\n    event BET(uint256 index, address bettor, uint256 amount, bytes1 challenger, uint256 answerBlockNumber);\n\n    constructor() {\n        //   owner .\n        owner = msg.sender;\n    } \n\n    function getSomeValue() public pure returns (uint256 value) {\n        return 5;\n    }\n\n    function getPot() public view returns (uint256 pot) {\n        return _pot;\n    }\n\n\n    /**\n     * @dev\n     * @param challengers\n     * @return result     bool  \n     */\n\n    function bet(bytes1 challengers) public payable returns (bool result) {\n        // check the proper ether is snet;\n        require(msg.value == BET_AMOUNT, \"not enough revert Eth!\");\n        require(pushBet(challengers), 'Fail to Add a new Bet Info');\n        // push bet to the queue;\n        // emit event;\n        emit BET(_tail - 1, msg.sender, msg.value, challengers, block.number + BET_BLOCK_INTERVAL);\n        return true;\n    }\n\n    function distribute() public {\n        uint256 cur;\n        BetInfo memory b;\n        BlockStatus currentBlockStatus;\n        for(cur= _head; cur < _tail; cur++) {\n           b = _bets[cur];\n           currentBlockStatus = getBlockStatus(b.answerBlockNumber);\n\n           if(currentBlockStatus == BlockStatus.checkable){\n               \n           }\n           if(currentBlockStatus == BlockStatus.notRevealed){\n               break;\n           }\n           if(currentBlockStatus == BlockStatus.BlockLimitPassed){\n               // \n           }\n\n           popBet(cur);\n        }\n\n        \n    }\n\n    function isMatch(bytes1 challengers, bytes32 answer) public pure returns (BettingResult) {\n        bytes1 first1 = challengers;\n        bytes1 first2 = challengers;\n\n        bytes1 answer1 = answer[0];\n        bytes1 answer2 = answer[0];\n        \n        first1 = first1 >> 4;\n        first1 = first1 << 4;\n\n        answer1 = answer1 >> 4;\n        answer1 = answer1 << 4;\n\n        first2 = first2 << 4;\n        first2 = first2 >> 4;\n\n        answer2 = answer2 << 4;\n        answer2 = answer2 >> 4;\n\n        if(first1 == answer1 && first2 == answer2){\n            return BettingResult.Win;\n        }\n        if(first1 == answer1 || first2 == answer2) {\n            return BettingResult.Draw;\n        }\n        return BettingResult.Fail;\n    }\n\n    function getBlockStatus(uint256 answerBlockNumber) internal view returns (BlockStatus) {\n        if(block.number > answerBlockNumber && block.number < BLOCK_LIMIT + answerBlockNumber){\n            return BlockStatus.checkable;\n        }\n        if( block.number <= answerBlockNumber ){\n            return BlockStatus.notRevealed;\n        }\n        return BlockStatus.BlockLimitPassed;\n    }\n\n\n    function getBetInfo(uint256 index) public view returns (uint256 answerBlockNumber, address bettor, bytes1 challengers){\n        BetInfo memory b = _bets[index];\n        answerBlockNumber = b.answerBlockNumber;\n        bettor = b.bettor;\n        challengers = b.challengers;\n    }\n\n    function pushBet(bytes1 challengers) internal returns (bool) {\n        BetInfo memory b;\n        b.bettor = payable(msg.sender);\n        b.answerBlockNumber = block.number + BET_BLOCK_INTERVAL;\n        b.challengers = challengers;\n\n        _bets[_tail] = b;\n        _tail++;\n        return true;\n    }\n\n    function popBet(uint256 index) internal returns (bool){\n        delete _bets[index];\n        return true;\n    }\n\n\n}\n",
  "sourcePath": "/Users/junsoo/Projects/first-dapp-contract/contracts/Lottery.sol",
  "compiler": {
    "name": "solc",
    "version": "0.8.13+commit.abaa5c0e.Emscripten.clang"
  },
  "schemaVersion": "3.4.7",
  "updatedAt": "2022-04-28T10:50:07.673Z",
  "devdoc": {
    "kind": "dev",
    "methods": {
      "bet(bytes1)": {
        "details": "@param challengers",
        "returns": {
          "result": "    bool  "
        }
      }
    },
    "version": 1
  },
  "userdoc": {
    "kind": "user",
    "methods": {},
    "version": 1
  }
}